:060000000A128A117C2F98
:100EF80083010A128A11802FFF308316031388009A
:100F080007110C30831203139700FF308316031365
:100F180092000030F0000230F1000A128A1199277D
:100F28000A128A110A128A11002801308312031347
:100F3800920012159F2F7108F3007008F20002301A
:100F48000310F30CF20CFF3E031DA42F720895004A
:100F5800CF30F200720897057008F20003300310D2
:100F6800F20DFF3E031DB32F0310720D3039F3004D
:100F780073089704081CC12FC22FC72FAC30F0008C
:100F88000030F100C72F881CCA2FCB2FD02F563026
:100F9800F0000130F100D02F081DD32FD42FD92F06
:100FA8000030F0000230F100D92F881DDC2FDD2F32
:100FB800E22FAE30F0000230F100E22F081EE52FDC
:100FC800E62FEB2F5A30F0000330F100EB2F881E8C
:100FD800EE2FEF2FF42FFC30F0000330F100F42F48
:100FE800081FF72FF82F9F2F0030F0000030F10076
:080FF8009F2F9F2F9F2F08007F
:00000001FF
