:060000000A128A113B2EDA
:100C340001300A128A114D260A128A110530F00079
:100C44000030F1000A128A1195260A128A1108004E
:100C54007E088A007F0882002A260A128A118000F0
:100C6400840A04087D0603190034FF0A0319FE0AE6
:100C74002E2E83136630FD000630FE007330FF0015
:100C8400443084000A128A112E260A128A11830122
:100C94000A128A111D2FF4008312031309108910FC
:100CA40009157408880009110530F0000030F100BE
:100CB4000A128A1195260A128A110800F400831276
:100CC40003130914891009157408880009110530E3
:100CD400F0000030F1000A128A1195260A128A11D6
:100CE40008002034503449344334203445345334D8
:100CF4004434203443344C34413453345334003476
:100D04002034313436347834323420344C3443345F
:100D140044342034443445344D344F34003438346E
:100D24000C3406340134C42E0130F0020030031CAC
:100D3400F103F1020030F2000030F3007308803A4E
:100D4400FF0080307F02031DA92EDC307202031CD9
:100D5400AC2EAD2EAF2EC42EC42E0130F2070318D4
:100D6400F30A0030F3077308803AFF0080307F02F3
:100D7400031DBE2EDC307202031CC12EC22EAF2E08
:100D8400C42EC42E71087004031DC92ECA2E962EBB
:100D9400CB2E0800831203136508F8006408F700DB
:100DA4006308F6006208F5008316031388018901BD
:100DB4003230F0000030F1000A128A1195260A122E
:100DC4008A110030F9000030FA007A08803AFF00F6
:100DD40080307F02031DF02E04307902031CF32EB1
:100DE400F42EF62E132F132F7908753E8400000875
:100DF4000A128A114D260A128A110130F9070318C2
:100E0400FA0A0030FA077A08803AFF0080307F023D
:100E1400031D0E2F04307902031C112F122FF62EFE
:100E2400132FF430F0000130F1000A128A119526D4
:100E34000A128A11080024308400443083120313F8
:100E4400A0000408A1000F30A2002008840083132E
:100E54000008A300A00A2108840023088000A10A36
:100E6400A20B272F333084005330A0000408A100C4
:100E74000F30A2002008840083130008A300A00AF6
:100E84002108840023088000A10AA20B3C2FF4301F
:100E9400F0000130F1000A128A1195260A128A1113
:100EA4000A128A11CC260A128A11F430F000013099
:100EB400F1000A128A1195260A128A11612F0A1268
:100EC4008A111A260A128A1180300A128A114D26B2
:100ED4000A128A11003083120313C2000030C300C7
:100EE4004308803AFF0080307F02031D7B2F1030BF
:100EF4004202031C7E2F7F2F812F972F972F0130C3
:100F040083120313C2070318C30A0030C30743083C
:100F1400803AFF0080307F02031D922F103042027E
:100F2400031C952F962F812F972F831203134208AA
:100F3400243E8400831300080A128A1160260A12D0
:100F44008A113230F0000030F1000A128A1195261D
:100F54000A128A11C0300A128A114D260A128A1105
:100F6400003083120313C2000030C3004308803AE8
:100F7400FF0080307F02031DC12F10304202031C8A
:100F8400C42FC52FC72FDD2FDD2F0130831203138C
:100F9400C2070318C30A0030C3074308803AFF009E
:100FA40080307F02031DD82F10304202031CDB2F38
:100FB400DC2FC72FDD2F831203134208333E840036
:100FC400831300080A128A1160260A128A11323029
:100FD400F0000030F1000A128A1195260A128A11D3
:100FE400F430F0000130F1000A128A1195260A1239
:0C0FF4008A11612F612F0A128A11002857
:02400E00723FFF
:00000001FF
